{
  "contractName": "StarNotary",
  "abi": [
    {
      "constant": true,
      "inputs": [
        {
          "name": "interfaceId",
          "type": "bytes4"
        }
      ],
      "name": "supportsInterface",
      "outputs": [
        {
          "name": "",
          "type": "bool"
        }
      ],
      "payable": false,
      "stateMutability": "view",
      "type": "function"
    },
    {
      "constant": true,
      "inputs": [
        {
          "name": "",
          "type": "uint256"
        }
      ],
      "name": "starsForSale",
      "outputs": [
        {
          "name": "",
          "type": "uint256"
        }
      ],
      "payable": false,
      "stateMutability": "view",
      "type": "function"
    },
    {
      "constant": true,
      "inputs": [
        {
          "name": "tokenId",
          "type": "uint256"
        }
      ],
      "name": "getApproved",
      "outputs": [
        {
          "name": "",
          "type": "address"
        }
      ],
      "payable": false,
      "stateMutability": "view",
      "type": "function"
    },
    {
      "constant": false,
      "inputs": [
        {
          "name": "to",
          "type": "address"
        },
        {
          "name": "tokenId",
          "type": "uint256"
        }
      ],
      "name": "approve",
      "outputs": [],
      "payable": false,
      "stateMutability": "nonpayable",
      "type": "function"
    },
    {
      "constant": true,
      "inputs": [
        {
          "name": "",
          "type": "uint256"
        }
      ],
      "name": "tokenIdToStarInfo",
      "outputs": [
        {
          "name": "name",
          "type": "string"
        },
        {
          "name": "dec",
          "type": "string"
        },
        {
          "name": "mag",
          "type": "string"
        },
        {
          "name": "cent",
          "type": "string"
        },
        {
          "name": "story",
          "type": "string"
        }
      ],
      "payable": false,
      "stateMutability": "view",
      "type": "function"
    },
    {
      "constant": false,
      "inputs": [
        {
          "name": "from",
          "type": "address"
        },
        {
          "name": "to",
          "type": "address"
        },
        {
          "name": "tokenId",
          "type": "uint256"
        }
      ],
      "name": "transferFrom",
      "outputs": [],
      "payable": false,
      "stateMutability": "nonpayable",
      "type": "function"
    },
    {
      "constant": false,
      "inputs": [
        {
          "name": "from",
          "type": "address"
        },
        {
          "name": "to",
          "type": "address"
        },
        {
          "name": "tokenId",
          "type": "uint256"
        }
      ],
      "name": "safeTransferFrom",
      "outputs": [],
      "payable": false,
      "stateMutability": "nonpayable",
      "type": "function"
    },
    {
      "constant": true,
      "inputs": [
        {
          "name": "tokenId",
          "type": "uint256"
        }
      ],
      "name": "ownerOf",
      "outputs": [
        {
          "name": "",
          "type": "address"
        }
      ],
      "payable": false,
      "stateMutability": "view",
      "type": "function"
    },
    {
      "constant": true,
      "inputs": [
        {
          "name": "owner",
          "type": "address"
        }
      ],
      "name": "balanceOf",
      "outputs": [
        {
          "name": "",
          "type": "uint256"
        }
      ],
      "payable": false,
      "stateMutability": "view",
      "type": "function"
    },
    {
      "constant": false,
      "inputs": [
        {
          "name": "to",
          "type": "address"
        },
        {
          "name": "approved",
          "type": "bool"
        }
      ],
      "name": "setApprovalForAll",
      "outputs": [],
      "payable": false,
      "stateMutability": "nonpayable",
      "type": "function"
    },
    {
      "constant": false,
      "inputs": [
        {
          "name": "from",
          "type": "address"
        },
        {
          "name": "to",
          "type": "address"
        },
        {
          "name": "tokenId",
          "type": "uint256"
        },
        {
          "name": "_data",
          "type": "bytes"
        }
      ],
      "name": "safeTransferFrom",
      "outputs": [],
      "payable": false,
      "stateMutability": "nonpayable",
      "type": "function"
    },
    {
      "constant": true,
      "inputs": [
        {
          "name": "owner",
          "type": "address"
        },
        {
          "name": "operator",
          "type": "address"
        }
      ],
      "name": "isApprovedForAll",
      "outputs": [
        {
          "name": "",
          "type": "bool"
        }
      ],
      "payable": false,
      "stateMutability": "view",
      "type": "function"
    },
    {
      "anonymous": false,
      "inputs": [
        {
          "indexed": false,
          "name": "_status",
          "type": "bool"
        }
      ],
      "name": "StarExists",
      "type": "event"
    },
    {
      "anonymous": false,
      "inputs": [
        {
          "indexed": true,
          "name": "from",
          "type": "address"
        },
        {
          "indexed": true,
          "name": "to",
          "type": "address"
        },
        {
          "indexed": true,
          "name": "tokenId",
          "type": "uint256"
        }
      ],
      "name": "Transfer",
      "type": "event"
    },
    {
      "anonymous": false,
      "inputs": [
        {
          "indexed": true,
          "name": "owner",
          "type": "address"
        },
        {
          "indexed": true,
          "name": "approved",
          "type": "address"
        },
        {
          "indexed": true,
          "name": "tokenId",
          "type": "uint256"
        }
      ],
      "name": "Approval",
      "type": "event"
    },
    {
      "anonymous": false,
      "inputs": [
        {
          "indexed": true,
          "name": "owner",
          "type": "address"
        },
        {
          "indexed": true,
          "name": "operator",
          "type": "address"
        },
        {
          "indexed": false,
          "name": "approved",
          "type": "bool"
        }
      ],
      "name": "ApprovalForAll",
      "type": "event"
    },
    {
      "constant": false,
      "inputs": [
        {
          "name": "_name",
          "type": "string"
        },
        {
          "name": "_dec",
          "type": "string"
        },
        {
          "name": "_mag",
          "type": "string"
        },
        {
          "name": "_cent",
          "type": "string"
        },
        {
          "name": "_story",
          "type": "string"
        },
        {
          "name": "_tokenId",
          "type": "uint256"
        }
      ],
      "name": "createStar",
      "outputs": [],
      "payable": true,
      "stateMutability": "payable",
      "type": "function"
    },
    {
      "constant": false,
      "inputs": [
        {
          "name": "_dec",
          "type": "string"
        },
        {
          "name": "_mag",
          "type": "string"
        }
      ],
      "name": "checkIfStarExist",
      "outputs": [
        {
          "name": "",
          "type": "bool"
        }
      ],
      "payable": false,
      "stateMutability": "nonpayable",
      "type": "function"
    },
    {
      "constant": false,
      "inputs": [
        {
          "name": "_tokenId",
          "type": "uint256"
        },
        {
          "name": "_price",
          "type": "uint256"
        }
      ],
      "name": "putStarUpForSale",
      "outputs": [],
      "payable": false,
      "stateMutability": "nonpayable",
      "type": "function"
    },
    {
      "constant": false,
      "inputs": [
        {
          "name": "_tokenId",
          "type": "uint256"
        }
      ],
      "name": "buyStar",
      "outputs": [],
      "payable": true,
      "stateMutability": "payable",
      "type": "function"
    }
  ],
  "bytecode": "0x608060405261003f6301ffc9a77c01000000000000000000000000000000000000000000000000000000000261007f640100000000026401000000009004565b61007a6380ac58cd7c01000000000000000000000000000000000000000000000000000000000261007f640100000000026401000000009004565b61013c565b63ffffffff7c010000000000000000000000000000000000000000000000000000000002817bffffffffffffffffffffffffffffffffffffffffffffffffffffffff1916141515156100d057600080fd5b6001600080837bffffffffffffffffffffffffffffffffffffffffffffffffffffffff19167bffffffffffffffffffffffffffffffffffffffffffffffffffffffff1916815260200190815260200160002060006101000a81548160ff02191690831515021790555050565b612328806200014c6000396000f3006080604052600436106100e6576000357c0100000000000000000000000000000000000000000000000000000000900463ffffffff16806301ffc9a7146100eb5780630564b1301461014f578063081812fc14610190578063095ea7b3146101fd5780631967fd981461024a57806323b872dd146104a05780632f1c34ef1461050d578063316a43611461052d57806342842e0e146105645780636352211e146105d157806370a082311461063e578063a22cb46514610695578063b250ced0146106e4578063b88d4fde14610862578063e5d58a9f14610915578063e985e9c5146109dc575b600080fd5b3480156100f757600080fd5b5061013560048036038101908080357bffffffffffffffffffffffffffffffffffffffffffffffffffffffff19169060200190929190505050610a57565b604051808215151515815260200191505060405180910390f35b34801561015b57600080fd5b5061017a60048036038101908080359060200190929190505050610abe565b6040518082815260200191505060405180910390f35b34801561019c57600080fd5b506101bb60048036038101908080359060200190929190505050610ad6565b604051808273ffffffffffffffffffffffffffffffffffffffff1673ffffffffffffffffffffffffffffffffffffffff16815260200191505060405180910390f35b34801561020957600080fd5b50610248600480360381019080803573ffffffffffffffffffffffffffffffffffffffff16906020019092919080359060200190929190505050610b27565b005b34801561025657600080fd5b5061027560048036038101908080359060200190929190505050610c6c565b60405180806020018060200180602001806020018060200186810386528b818151815260200191508051906020019080838360005b838110156102c55780820151818401526020810190506102aa565b50505050905090810190601f1680156102f25780820380516001836020036101000a031916815260200191505b5086810385528a818151815260200191508051906020019080838360005b8381101561032b578082015181840152602081019050610310565b50505050905090810190601f1680156103585780820380516001836020036101000a031916815260200191505b50868103845289818151815260200191508051906020019080838360005b83811015610391578082015181840152602081019050610376565b50505050905090810190601f1680156103be5780820380516001836020036101000a031916815260200191505b50868103835288818151815260200191508051906020019080838360005b838110156103f75780820151818401526020810190506103dc565b50505050905090810190601f1680156104245780820380516001836020036101000a031916815260200191505b50868103825287818151815260200191508051906020019080838360005b8381101561045d578082015181840152602081019050610442565b50505050905090810190601f16801561048a5780820380516001836020036101000a031916815260200191505b509a505050505050505050505060405180910390f35b3480156104ac57600080fd5b5061050b600480360381019080803573ffffffffffffffffffffffffffffffffffffffff169060200190929190803573ffffffffffffffffffffffffffffffffffffffff16906020019092919080359060200190929190505050610f9a565b005b61052b60048036038101908080359060200190929190505050611069565b005b34801561053957600080fd5b506105626004803603810190808035906020019092919080359060200190929190505050611211565b005b34801561057057600080fd5b506105cf600480360381019080803573ffffffffffffffffffffffffffffffffffffffff169060200190929190803573ffffffffffffffffffffffffffffffffffffffff16906020019092919080359060200190929190505050611310565b005b3480156105dd57600080fd5b506105fc60048036038101908080359060200190929190505050611331565b604051808273ffffffffffffffffffffffffffffffffffffffff1673ffffffffffffffffffffffffffffffffffffffff16815260200191505060405180910390f35b34801561064a57600080fd5b5061067f600480360381019080803573ffffffffffffffffffffffffffffffffffffffff1690602001909291905050506113af565b6040518082815260200191505060405180910390f35b3480156106a157600080fd5b506106e2600480360381019080803573ffffffffffffffffffffffffffffffffffffffff169060200190929190803515159060200190929190505050611433565b005b610860600480360381019080803590602001908201803590602001908080601f0160208091040260200160405190810160405280939291908181526020018383808284378201915050505050509192919290803590602001908201803590602001908080601f0160208091040260200160405190810160405280939291908181526020018383808284378201915050505050509192919290803590602001908201803590602001908080601f0160208091040260200160405190810160405280939291908181526020018383808284378201915050505050509192919290803590602001908201803590602001908080601f0160208091040260200160405190810160405280939291908181526020018383808284378201915050505050509192919290803590602001908201803590602001908080601f01602080910402602001604051908101604052809392919081815260200183838082843782019150505050505091929192908035906020019092919050505061156f565b005b34801561086e57600080fd5b50610913600480360381019080803573ffffffffffffffffffffffffffffffffffffffff169060200190929190803573ffffffffffffffffffffffffffffffffffffffff16906020019092919080359060200190929190803590602001908201803590602001908080601f0160208091040260200160405190810160405280939291908181526020018383808284378201915050505050509192919290505050611742565b005b34801561092157600080fd5b506109c2600480360381019080803590602001908201803590602001908080601f0160208091040260200160405190810160405280939291908181526020018383808284378201915050505050509192919290803590602001908201803590602001908080601f016020809104026020016040519081016040528093929190818152602001838380828437820191505050505050919291929050505061176a565b604051808215151515815260200191505060405180910390f35b3480156109e857600080fd5b50610a3d600480360381019080803573ffffffffffffffffffffffffffffffffffffffff169060200190929190803573ffffffffffffffffffffffffffffffffffffffff1690602001909291905050506118c1565b604051808215151515815260200191505060405180910390f35b6000806000837bffffffffffffffffffffffffffffffffffffffffffffffffffffffff19167bffffffffffffffffffffffffffffffffffffffffffffffffffffffff1916815260200190815260200160002060009054906101000a900460ff169050919050565b60066020528060005260406000206000915090505481565b6000610ae182611955565b1515610aec57600080fd5b6002600083815260200190815260200160002060009054906101000a900473ffffffffffffffffffffffffffffffffffffffff169050919050565b6000610b3282611331565b90508073ffffffffffffffffffffffffffffffffffffffff168373ffffffffffffffffffffffffffffffffffffffff1614151515610b6f57600080fd5b8073ffffffffffffffffffffffffffffffffffffffff163373ffffffffffffffffffffffffffffffffffffffff161480610baf5750610bae81336118c1565b5b1515610bba57600080fd5b826002600084815260200190815260200160002060006101000a81548173ffffffffffffffffffffffffffffffffffffffff021916908373ffffffffffffffffffffffffffffffffffffffff160217905550818373ffffffffffffffffffffffffffffffffffffffff168273ffffffffffffffffffffffffffffffffffffffff167f8c5be1e5ebec7d5bd14f71427d1e84f3dd0314c0f7b2291e5b200ac8c7c3b92560405160405180910390a4505050565b6005602052806000526040600020600091509050806000018054600181600116156101000203166002900480601f016020809104026020016040519081016040528092919081815260200182805460018160011615610100020316600290048015610d185780601f10610ced57610100808354040283529160200191610d18565b820191906000526020600020905b815481529060010190602001808311610cfb57829003601f168201915b505050505090806001018054600181600116156101000203166002900480601f016020809104026020016040519081016040528092919081815260200182805460018160011615610100020316600290048015610db65780601f10610d8b57610100808354040283529160200191610db6565b820191906000526020600020905b815481529060010190602001808311610d9957829003601f168201915b505050505090806002018054600181600116156101000203166002900480601f016020809104026020016040519081016040528092919081815260200182805460018160011615610100020316600290048015610e545780601f10610e2957610100808354040283529160200191610e54565b820191906000526020600020905b815481529060010190602001808311610e3757829003601f168201915b505050505090806003018054600181600116156101000203166002900480601f016020809104026020016040519081016040528092919081815260200182805460018160011615610100020316600290048015610ef25780601f10610ec757610100808354040283529160200191610ef2565b820191906000526020600020905b815481529060010190602001808311610ed557829003601f168201915b505050505090806004018054600181600116156101000203166002900480601f016020809104026020016040519081016040528092919081815260200182805460018160011615610100020316600290048015610f905780601f10610f6557610100808354040283529160200191610f90565b820191906000526020600020905b815481529060010190602001808311610f7357829003601f168201915b5050505050905085565b610fa433826119c7565b1515610faf57600080fd5b600073ffffffffffffffffffffffffffffffffffffffff168273ffffffffffffffffffffffffffffffffffffffff1614151515610feb57600080fd5b610ff58382611a5c565b610fff8382611b5f565b6110098282611c8e565b808273ffffffffffffffffffffffffffffffffffffffff168473ffffffffffffffffffffffffffffffffffffffff167fddf252ad1be2c89b69c2b068fc378daa952ba7f163c4a11628f55a4df523b3ef60405160405180910390a4505050565b6000806000600660008581526020019081526020016000205411151561108e57600080fd5b600660008481526020019081526020016000205491503073ffffffffffffffffffffffffffffffffffffffff16636352211e846040518263ffffffff167c010000000000000000000000000000000000000000000000000000000002815260040180828152602001915050602060405180830381600087803b15801561111357600080fd5b505af1158015611127573d6000803e3d6000fd5b505050506040513d602081101561113d57600080fd5b8101908080519060200190929190505050905081341015151561115f57600080fd5b6111698184611b5f565b6111733384611c8e565b8073ffffffffffffffffffffffffffffffffffffffff166108fc839081150290604051600060405180830381858888f193505050501580156111b9573d6000803e3d6000fd5b508134111561120c573373ffffffffffffffffffffffffffffffffffffffff166108fc8334039081150290604051600060405180830381858888f1935050505015801561120a573d6000803e3d6000fd5b505b505050565b3373ffffffffffffffffffffffffffffffffffffffff163073ffffffffffffffffffffffffffffffffffffffff16636352211e846040518263ffffffff167c010000000000000000000000000000000000000000000000000000000002815260040180828152602001915050602060405180830381600087803b15801561129757600080fd5b505af11580156112ab573d6000803e3d6000fd5b505050506040513d60208110156112c157600080fd5b810190808051906020019092919050505073ffffffffffffffffffffffffffffffffffffffff161415156112f457600080fd5b8060066000848152602001908152602001600020819055505050565b61132c8383836020604051908101604052806000815250611742565b505050565b6000806001600084815260200190815260200160002060009054906101000a900473ffffffffffffffffffffffffffffffffffffffff169050600073ffffffffffffffffffffffffffffffffffffffff168173ffffffffffffffffffffffffffffffffffffffff16141515156113a657600080fd5b80915050919050565b60008073ffffffffffffffffffffffffffffffffffffffff168273ffffffffffffffffffffffffffffffffffffffff16141515156113ec57600080fd5b600360008373ffffffffffffffffffffffffffffffffffffffff1673ffffffffffffffffffffffffffffffffffffffff168152602001908152602001600020549050919050565b3373ffffffffffffffffffffffffffffffffffffffff168273ffffffffffffffffffffffffffffffffffffffff161415151561146e57600080fd5b80600460003373ffffffffffffffffffffffffffffffffffffffff1673ffffffffffffffffffffffffffffffffffffffff16815260200190815260200160002060008473ffffffffffffffffffffffffffffffffffffffff1673ffffffffffffffffffffffffffffffffffffffff16815260200190815260200160002060006101000a81548160ff0219169083151502179055508173ffffffffffffffffffffffffffffffffffffffff163373ffffffffffffffffffffffffffffffffffffffff167f17307eab39ab6107e8899845ad3d59bd9653f200f220920489ca2b5937696c3183604051808215151515815260200191505060405180910390a35050565b611577612227565b60001515611585878761176a565b151514151561159357600080fd5b600160076115d788886040805190810160405280600181526020017f3a00000000000000000000000000000000000000000000000000000000000000815250611de8565b6040518082805190602001908083835b60208310151561160c57805182526020820191506020810190506020830392506115e7565b6001836020036101000a038019825116818451168082178552505050505050905001915050908152602001604051809103902060006101000a81548163ffffffff021916908363ffffffff16021790555060a060405190810160405280888152602001878152602001868152602001858152602001848152509050806005600084815260200190815260200160002060008201518160000190805190602001906116b7929190612257565b5060208201518160010190805190602001906116d4929190612257565b5060408201518160020190805190602001906116f1929190612257565b50606082015181600301908051906020019061170e929190612257565b50608082015181600401908051906020019061172b929190612257565b509050506117393383611f0a565b50505050505050565b61174d848484610f9a565b61175984848484611fb0565b151561176457600080fd5b50505050565b6000600160076117b085856040805190810160405280600181526020017f3a00000000000000000000000000000000000000000000000000000000000000815250611de8565b6040518082805190602001908083835b6020831015156117e557805182526020820191506020810190506020830392506117c0565b6001836020036101000a038019825116818451168082178552505050505050905001915050908152602001604051809103902060009054906101000a900463ffffffff1663ffffffff16141561187a577f6b5c16b8e18312be014e0d207252b891eba600fe5c9e07156acbd78c84afd1686001604051808215151515815260200191505060405180910390a1600190506118bb565b7f6b5c16b8e18312be014e0d207252b891eba600fe5c9e07156acbd78c84afd1686000604051808215151515815260200191505060405180910390a1600090505b92915050565b6000600460008473ffffffffffffffffffffffffffffffffffffffff1673ffffffffffffffffffffffffffffffffffffffff16815260200190815260200160002060008373ffffffffffffffffffffffffffffffffffffffff1673ffffffffffffffffffffffffffffffffffffffff16815260200190815260200160002060009054906101000a900460ff16905092915050565b6000806001600084815260200190815260200160002060009054906101000a900473ffffffffffffffffffffffffffffffffffffffff169050600073ffffffffffffffffffffffffffffffffffffffff168173ffffffffffffffffffffffffffffffffffffffff161415915050919050565b6000806119d383611331565b90508073ffffffffffffffffffffffffffffffffffffffff168473ffffffffffffffffffffffffffffffffffffffff161480611a4257508373ffffffffffffffffffffffffffffffffffffffff16611a2a84610ad6565b73ffffffffffffffffffffffffffffffffffffffff16145b80611a535750611a5281856118c1565b5b91505092915050565b8173ffffffffffffffffffffffffffffffffffffffff16611a7c82611331565b73ffffffffffffffffffffffffffffffffffffffff16141515611a9e57600080fd5b600073ffffffffffffffffffffffffffffffffffffffff166002600083815260200190815260200160002060009054906101000a900473ffffffffffffffffffffffffffffffffffffffff1673ffffffffffffffffffffffffffffffffffffffff16141515611b5b5760006002600083815260200190815260200160002060006101000a81548173ffffffffffffffffffffffffffffffffffffffff021916908373ffffffffffffffffffffffffffffffffffffffff1602179055505b5050565b8173ffffffffffffffffffffffffffffffffffffffff16611b7f82611331565b73ffffffffffffffffffffffffffffffffffffffff16141515611ba157600080fd5b611bf46001600360008573ffffffffffffffffffffffffffffffffffffffff1673ffffffffffffffffffffffffffffffffffffffff168152602001908152602001600020546121d290919063ffffffff16565b600360008473ffffffffffffffffffffffffffffffffffffffff1673ffffffffffffffffffffffffffffffffffffffff1681526020019081526020016000208190555060006001600083815260200190815260200160002060006101000a81548173ffffffffffffffffffffffffffffffffffffffff021916908373ffffffffffffffffffffffffffffffffffffffff1602179055505050565b600073ffffffffffffffffffffffffffffffffffffffff166001600083815260200190815260200160002060009054906101000a900473ffffffffffffffffffffffffffffffffffffffff1673ffffffffffffffffffffffffffffffffffffffff16141515611cfc57600080fd5b816001600083815260200190815260200160002060006101000a81548173ffffffffffffffffffffffffffffffffffffffff021916908373ffffffffffffffffffffffffffffffffffffffff160217905550611da16001600360008573ffffffffffffffffffffffffffffffffffffffff1673ffffffffffffffffffffffffffffffffffffffff168152602001908152602001600020546121f390919063ffffffff16565b600360008473ffffffffffffffffffffffffffffffffffffffff1673ffffffffffffffffffffffffffffffffffffffff168152602001908152602001600020819055505050565b60608382846040516020018084805190602001908083835b602083101515611e255780518252602082019150602081019050602083039250611e00565b6001836020036101000a03801982511681845116808217855250505050505090500183805190602001908083835b602083101515611e785780518252602082019150602081019050602083039250611e53565b6001836020036101000a03801982511681845116808217855250505050505090500182805190602001908083835b602083101515611ecb5780518252602082019150602081019050602083039250611ea6565b6001836020036101000a038019825116818451168082178552505050505050905001935050505060405160208183030381529060405290509392505050565b600073ffffffffffffffffffffffffffffffffffffffff168273ffffffffffffffffffffffffffffffffffffffff1614151515611f4657600080fd5b611f508282611c8e565b808273ffffffffffffffffffffffffffffffffffffffff16600073ffffffffffffffffffffffffffffffffffffffff167fddf252ad1be2c89b69c2b068fc378daa952ba7f163c4a11628f55a4df523b3ef60405160405180910390a45050565b600080611fd28573ffffffffffffffffffffffffffffffffffffffff16612214565b1515611fe157600191506121c9565b8473ffffffffffffffffffffffffffffffffffffffff1663150b7a02338887876040518563ffffffff167c0100000000000000000000000000000000000000000000000000000000028152600401808573ffffffffffffffffffffffffffffffffffffffff1673ffffffffffffffffffffffffffffffffffffffff1681526020018473ffffffffffffffffffffffffffffffffffffffff1673ffffffffffffffffffffffffffffffffffffffff16815260200183815260200180602001828103825283818151815260200191508051906020019080838360005b838110156120d65780820151818401526020810190506120bb565b50505050905090810190601f1680156121035780820380516001836020036101000a031916815260200191505b5095505050505050602060405180830381600087803b15801561212557600080fd5b505af1158015612139573d6000803e3d6000fd5b505050506040513d602081101561214f57600080fd5b8101908080519060200190929190505050905063150b7a027c0100000000000000000000000000000000000000000000000000000000027bffffffffffffffffffffffffffffffffffffffffffffffffffffffff1916817bffffffffffffffffffffffffffffffffffffffffffffffffffffffff19161491505b50949350505050565b6000808383111515156121e457600080fd5b82840390508091505092915050565b600080828401905083811015151561220a57600080fd5b8091505092915050565b600080823b905060008111915050919050565b60a06040519081016040528060608152602001606081526020016060815260200160608152602001606081525090565b828054600181600116156101000203166002900490600052602060002090601f016020900481019282601f1061229857805160ff19168380011785556122c6565b828001600101855582156122c6579182015b828111156122c55782518255916020019190600101906122aa565b5b5090506122d391906122d7565b5090565b6122f991905b808211156122f55760008160009055506001016122dd565b5090565b905600a165627a7a72305820982bcb8bab008f81eda54ef0441d5369c017fbcde474789229b2b685cf6f533e0029",
  "source": "pragma solidity ^0.4.24;\n\nimport \"../../node_modules/openzeppelin-solidity/contracts/token/ERC721/ERC721.sol\";\n\ncontract StarNotary is ERC721 {\n\n    struct Star {\n        string name;\n        string dec;\n        string mag;\n        string cent;\n        string story;\n    }\n\n    mapping(uint256 => Star) public tokenIdToStarInfo;\n    mapping(uint256 => uint256) public starsForSale;\n    mapping(string => uint32) private coordinatesMapping;\n\n    event StarExists(bool _status);\n\n\n    function append(string a, string b, string separator) internal pure returns (string) {\n        return string(abi.encodePacked(a, separator, b));\n    }\n\n    function createStar(string _name, string _dec, string _mag, string _cent, string _story, uint256 _tokenId) public payable {\n        require(checkIfStarExist(_dec, _mag) == false);\n\n        coordinatesMapping[append(_dec, _mag, \":\")] = 1;\n\n        Star memory newStar = Star(_name, _dec, _mag, _cent, _story);\n        tokenIdToStarInfo[_tokenId] = newStar;\n\n        _mint(msg.sender, _tokenId);\n    }\n\n    function checkIfStarExist(string _dec, string _mag) public returns (bool) {\n        if (coordinatesMapping[append(_dec, _mag, \":\")] == 1) {\n            emit StarExists(true);\n            return true;\n        } else {\n            emit StarExists(false);\n            return false;\n        }\n    }\n\n    function putStarUpForSale(uint256 _tokenId, uint256 _price) public {\n        require(this.ownerOf(_tokenId) == msg.sender);\n\n        starsForSale[_tokenId] =  _price;\n    }\n\n    function buyStar(uint256 _tokenId) public payable {\n        require(starsForSale[_tokenId] > 0);\n\n        uint256 starCost = starsForSale[_tokenId];\n        address starOwner = this.ownerOf(_tokenId);\n\n        require(msg.value >= starCost);\n\n        _removeTokenFrom(starOwner, _tokenId);\n        _addTokenTo(msg.sender, _tokenId);\n\n        starOwner.transfer(starCost);\n\n\n        if (msg.value > starCost) {\n            msg.sender.transfer(msg.value - starCost);\n        }\n\n    }\n\n}",
  "sourcePath": "D:\\Projects\\udacity_ether\\smart_contracts\\contracts\\StarNotary.sol",
  "compiler": {
    "name": "solc",
    "version": "0.4.24+commit.e67f0147.Emscripten.clang"
  },
  "schemaVersion": "2.0.1",
  "updatedAt": "2018-09-22T18:55:12.878Z"
}